:020000040800F2
:100000002804002045010008FB030008F303000852
:10001000F70300088D0100083D0A000800000000F9
:10002000000000000000000000000000F5060008CD
:1000300091010008000000008D0400084D08000830
:100040005F0100085F0100085F0100085F01000810
:100050005F0100085F0100085F0100085F01000800
:100060005F0100085F0100085F0100085F010008F0
:100070005F0100085F0100085F0100085F010008E0
:100080005F0100085F0100085F0100085F010008D0
:100090005F0100085F0100085F0100085F010008C0
:1000A0005F0100085F0100085F0100085F010008B0
:1000B0005F010008A50800085F0100085F01000853
:1000C0005F0100085F0100085F0100085F01000890
:1000D0005F0100085F0100085F0100085F01000880
:1000E000110200085F0100085F0100085F010008BD
:1000F0005F0100085F0100085F0100085F01000860
:100100005F0100085F0100085F0100085F0100084F
:100110005F0100085F0100085F0100085F0100083F
:100120005F0100085F0100085F0100085F0100082F
:10013000DFF80CD000F018F800480047150B000855
:10014000280400200648804706480047FEE7FEE7EF
:10015000FEE7FEE7FEE7FEE7FEE7FEE7FEE7FEE777
:100160005108000831010008064C074D06E0E06820
:1001700040F0010394E8070098471034AC42F6D3EE
:10018000FFF7DAFF480B0008680B000800BFFEE726
:10019000704700004FF0E021096921F004014FF0A1
:1001A000E0221161C21700EB5272C2F3C702074B83
:1001B0001A701946097801EB4102C2EBC1114FF6E2
:1001C000FF7202EAC101024A11807047120000204A
:1001D0001400002001460D4A12884A434FF0E023E4
:1001E0005A6100229A6101221A6100BF4FF0E02299
:1001F000106900F001021AB100F48032002AF5D033
:1002000000224FF0E0231A619A6170471400002029
:1002100010B54FF4005000F011F828B10120034947
:100220000860400300F004F810BD0000000000204A
:100230000149086070470000140401400146002095
:100240000022074B1B6803EA0102054B14331B68AD
:100250000B4013B10AB1012000E0002070470000FC
:10026000000401400549096821F01001034A1160AA
:1002700011460968014311607047000000200240E8
:1002800001460020034A106800F03800084310605F
:10029000704700000020024008B54FF48070ADF8B0
:1002A000000010208DF8030003208DF8020069463D
:1002B000014800F003F808BD000C01402DE9F041B1
:1002C000024600250026002000230024002791F884
:1002D00003C00CF00F0591F803C00CF0100CBCF13A
:1002E000000F03D091F802C04CEA050591F800C058
:1002F000BCF1000F31D0146800202BE04FF0010C4E
:100300000CFA00F3B1F800C00CEA03069E4220D1BB
:1003100083004FF00F0C0CFA03F7BC4305FA03FC03
:100320004CEA040491F803C0BCF1280F06D14FF049
:10033000010C0CFA00FCC2F814C00AE091F803C0EA
:10034000BCF1480F05D14FF0010C0CFA00FCC2F8CB
:1003500010C0401C0828D1D31460B1F800C0BCF113
:10036000FF0F34DD546800202EE000F1080C4FF040
:10037000010808FA0CF3B1F800C00CEA03069E422B
:1003800021D183004FF00F0C0CFA03F7BC4305FAA0
:1003900003FC4CEA040491F803C0BCF1280F05D11A
:1003A00000F1080C08FA0CF8C2F8148091F803C0A8
:1003B000BCF1480F07D100F1080C4FF0010808FA12
:1003C0000CF8C2F81080401C0828CED35460BDE859
:1003D000F08102460020D3680B400BB1012000E001
:1003E00000207047416170470AB1016100E041613E
:1003F000704700BFFEE700BFFEE7704708B51D204D
:100400008DF8000001208DF801008DF802008DF8B4
:100410000300684600F002F808BD000070B5002136
:1004200000230F22C47804B3154C246804F4E0645C
:10043000C4F5E064210AC1F10403CA40447804FA17
:1004400003F184781440214309010E4C0678A1552C
:10045000047804F01F050124AC4005786D11AD004F
:1004600005F1E025C5F8004109E0047804F01F0516
:100470000124AC40044D0678761145F8264070BD45
:100480000CED00E000E400E080E100E070470000D7
:1004900029B1064AD2690243044BDA6104E0034AF7
:1004A000D2698243014BDA617047000000100240BC
:1004B00029B1064A92690243044B9A6104E0034A57
:1004C00092698243014B9A6170470000001002401C
:1004D00010B500F03DF84FF4803000F091F800F0D6
:1004E000EDF80446012C24D11020FFF7BBFE0220BA
:1004F000FFF7C6FE002000F077F8002000F0B2F809
:10050000A00200F0A3F84FF4E011200400F0BCF8C2
:10051000012000F0B3F800BF392000F03FF80028B8
:10052000FAD0022000F0BEF800BF00F055F808280D
:10053000FBD14820FFF72EFE10BD10B5012102208F
:10054000FFF7A6FF01210C20FFF7B2FF10BD00004E
:100550000F48006840F001000D49086008464068F7
:100560000C4908400A494860084600680A490840A2
:10057000074908600846006820F4802008600846A3
:10058000406820F4FE0048604FF41F008860704708
:10059000001002400000FFF8FFFFF6FE10B5014614
:1005A0000022002300204A11012A02D1094C2368AD
:1005B00006E0022A02D1074C236A01E0054C636A77
:1005C00001F01F02012494401C400CB1012000E006
:1005D000002010BD001002400248406800F00C00EE
:1005E000704700000010024001460020034A506896
:1005F00020F0F000084350607047000000100240F7
:100600001149096821F480310F4A116011460968C7
:1006100021F480211160B0F5803F03D0B0F5802F28
:100620000ED106E00849096841F48031064A11609C
:1006300007E00549096841F4A021034A116000E080
:1006400000BF00BF704700000010024001460020BC
:10065000034A506820F4E06008435060704700008F
:100660000010024001460020034A506820F4605008
:1006700040EAC1005060704700100240014908661E
:10068000704700000000424202460020044B5868B8
:1006900020F47C1042EA01031843014B5860704774
:1006A0000010024001460020034A506820F0030079
:1006B00008435060704700000010024038B5002029
:1006C00000900024002500BF3120FFF767FF05469A
:1006D0000098401C00900098B0F5A06F01D0002D4C
:1006E000F2D03120FFF75AFF08B1012400E00024C6
:1006F000204638BD7047000010B50146002228E0B2
:100700000023154C23602A23144C23600123144C2E
:10071000237000BF104B1B68104C2468A342F9D310
:1007200001F001031BB12B230C4C236002E080235A
:100730000A4C23600023084C2360094C237000BF3F
:10074000054B1B68054C2468A342F9D34910531C80
:10075000DAB2082AD4DB10BD040000200C0000200F
:100760001000002010B500F001F810BD0CB50020FD
:10077000019000903348006840F4803031490860AF
:1007800000BF3048006800F4003000900198401C21
:100790000190009818B90198B0F5A06FF1D12948DF
:1007A000006800F4003010B10120009001E000204A
:1007B00000900098012843D12348006840F01000C1
:1007C000214908600846006820F0030008600846D8
:1007D000006840F0020008601A4840681949486003
:1007E0000846406848600846406840F480604860B9
:1007F0000846406820F47C1048600846406840F491
:10080000E81048600846006840F08070086000BF4B
:100810000C48006800F000700028F9D009484068D2
:1008200020F00300074948600846406840F0020095
:10083000486000BF0348406800F00C000828F9D168
:100840000CBD000000100240002002407047000074
:1008500010B51148006840F001000F4908600846D3
:1008600040680E4908400C494860084600680C4939
:100870000840094908600846006820F480200860A4
:100880000846406820F4FE0048604FF41F0088606E
:10089000FFF768FF10BD0000001002400000FFF8E5
:1008A000FFFFF6FE10B50121124800F059F80128AB
:1008B0001FD111480068401C0F4908600F4800789C
:1008C00001280DD101020E48FFF783FDC0F10100A0
:1008D000C4B222464FF480710948FFF785FD04E059
:1008E0004FF480710648FFF77DFD0121014800F0BB
:1008F00009F810BD00040040040000201000002092
:10090000000C0140CA430282704721B1028842F0C4
:100910000102028004E002884FF6FE731A40028052
:100920007047000010B5EB200B4988800320088039
:100930000020C8804880094800F02EF801221146A6
:10094000064800F01EF801210448FFF7DEFF3121C0
:10095000024800F01FF810BD1800002000040040FD
:1009600030B50246002000230024158A05EA010361
:10097000958905EA010413B10CB1012000E00020C3
:1009800030BD1AB183890B43838102E083898B4395
:100990008381704781867047002202881D4B9842F0
:1009A0000ED01D4B98420BD0B0F1804F08D01B4B9E
:1009B000984205D01A4B984202D01A4B984204D163
:1009C0004FF68F731A404B881A43174B984207D043
:1009D000164B984204D04FF6FF431A40CB881A4377
:1009E00002808B8883850B8803850A4B98420BD045
:1009F000094B984208D00E4B984205D00D4B9842B7
:100A000002D00D4B984201D10B7A038601238382D9
:100A100070470000002C01400034014000040040F9
:100A200000080040000C004000100040001400408E
:100A300000400140004401400048014000BFFEE783
:100A400010B50446032026490870FC20254908708B
:100A50004FF42B70244908600020244908600120CD
:100A60002349087000BF214800681F49096888426F
:100A7000F9D300201D4908604FF4AB701A49086093
:100A800000201B49087000BF184800681649096813
:100A90008842F9D312480078FFF72EFE11480078FB
:100AA000FFF72AFE2046FFF727FEE143C8B2FFF713
:100AB00023FE6620FFF720FE00200C4908602A2054
:100AC0000949086001200A49087000BF074800680A
:100AD000054909688842F9D300200549087010BD0E
:100AE00008000020090000200C0000200400002065
:100AF0001000002002E008C8121F08C1002AFAD125
:100B000070477047002001E001C1121F002AFBD18D
:100B10007047000000200B490860FFF799FEFFF7BF
:100B20000CFDFFF7D5FCFFF769FCFFF7B5FBFFF7FE
:100B3000F9FE05E01220FFF783FFC820FFF74AFB0C
:100B4000F8E7000000000020680B0008000000200B
:100B500018000000F40A0008800B000818000020AC
:100B600010040000040B000800000000000000005A
:100B70000000000000000000000000000000000075
:0400000508000131BD
:00000001FF
